:02000000219449
:0200030001A654
:02000B0080185B
:0200130001BD2D
:10002300211DBF004E12007E3000391200873001BF
:100033002412009030020F7F14758C3C758AE912EC
:100043000099752000327F14758C3C758AE6120086
:1000530099752000327F14758C3C758ADA120099E9
:10006300752000327F14758C3C758ACE1200997509
:100073002000321F758C3C758AC43208B83C047862
:1000830000D2002209B93C047900D201220ABA182D
:10009300047A00D20222EAF4F580E9F4F5A0E8F448
:1000A300F590220EBE0102C28CBE040D7E00758C3B
:1000B3003C758AB0752000D28C32BE000132BE017D
:1000C3000712009012009932BE0207120087120035
:1000D300993212007E12009932C0E074C60000000B
:1000E300D5E0FAD0E022C0F075F0631200DC000026
:1000F300000000000000D5F0F2D0F022C0E0C0F014
:10010300E519540F75F00AA4F519E518540F85196C
:10011300F025F0F517D0F0D0E022209971C298BDF8
:100123000003C28C0DBD01070DE599F51F805FBD6E
:1001330002140DE599F51EE51FF519E51EF51812D4
:1001430000FFAA178048BD03070DE599F51D803E02
:04015300BD04140DC6
:10015700E599F51CE51DF519E51CF5181200FFA931
:10016700178027BD05070DE599F51B801D7D00E567
:1001770099F51AE51BF519E51AF5181200FFA817E6
:100187007F14758C3C758AB0D28CC299327D007E03
:1001970000780079007A00C29FD29EC29DD29C53FC
:1001A700877F758921758DF3D28ED2ACD2A8D2887C
:1001B700D2AAD28A758C3C758AB0D28CD2BC7F14F5
:1001C700D2A9D2AF120099BE000512009980F8BEDD
:1001D700010E1200E91200991200E97580FF80E70D
:1001E700BE020E1200E91200991200E975A0FF8005
:0F01F700D61200E91200991200E97590FF80C836
:00000001FF
