:0200000001E01D
:02000300018A70
:02000B0080086B
:10001300019EBF004212006230003012006B3001BB
:100023001E12007430020C7F14758C3C758AE91221
:10003300007D327F14758C3C758AE612007D327F19
:1000430014758C3C758ADA12007D327F14758C3CF2
:10005300758ACE12007D321F758C3C758AC43208B6
:10006300B83C047800D2002209B93C047900D201DB
:10007300220ABA18047A00D20222EAF4F580E9F4DB
:10008300F5A0E8F4F590220EBE0102C28CBE040A6C
:100093007E00758C3C758AB0D28C32BE000132BEB4
:1000A300010712007412007D32BE020712006B12A8
:1000B300007D3212006212007D32C0E074C600007F
:1000C30000D5E0FAD0E022C0F075F0631200BD0065
:1000D30000000000000000D5F0F2D0F0227E00788E
:1000E3000079007A00D2A8D288D2AAD28A5389F1A1
:1000F300438901758C3C758AB0D28C7F14D2A9D206
:10010300AF12007DBE000512007D80F8BE010E1205
:1001130000CA12007D1200CA7580FF80E7BE020E7E
:100123001200CA12007D1200CA75A0FF80D6120009
:0C013300CA12007D1200CA7590FF80C83F
:00000001FF
