:0200000001827B
:10000B008000BF004212005A3000301200633001F2
:10001B001E12006C30020C1200757F14758C3C752F
:10002B008AB0321200757F14758C3C758AB032120F
:10003B0000757F14758C3C758AB0321200757F1475
:10004B00758C3C758AB0321F758C3C758AB0320842
:10005B00B83C047800D2002209B93C047900D201E3
:10006B00220ABA18047A00D20222EAF4F580E9F4E3
:10007B00F5A0E8F4F59022780079007A005389F125
:10008B00438901758C3C758AB0D28C7F14D2A9D26E
:06009B00AF12007580FEAB
:00000001FF
