:0200000021835A
:02000300019A60
:02000B0080185B
:0200130001AE3C
:10002300210EBF004212007230003012007B3001FB
:100033001E12008430020C7F14758C3C758AE91201
:10004300008D327F14758C3C758AE612008D327FE9
:1000530014758C3C758ADA12008D327F14758C3CD2
:10006300758ACE12008D321F758C3C758AC4320896
:10007300B83C047800D2002209B93C047900D201CB
:10008300220ABA18047A00D20222EAF4F580E9F4CB
:10009300F5A0E8F4F590220EBE0102C28CBE040A5C
:1000A3007E00758C3C758AB0D28C32BE000132BEA4
:1000B300010712008412008D32BE020712007B1268
:1000C300008D3212007212008D32C0E074C600003F
:1000D30000D5E0FAD0E022C0F075F0631200CD0045
:1000E30000000000000000D5F0F2D0F022C0E0C014
:1000F300F0E519540F75F00AA4F519E518540F85A6
:1001030019F025F0F517D0F0D0E02220996FC298AE
:10011300BD0003C28C0DBD01070DE599F51F805D80
:10012300BD02140DE599F51EE51FF519E51EF51839
:100133001200F0AA178046BD03070DE599F51D804F
:0F0143003CBD04140DE599F51CE51DF519E51CEF
:10015200F5181200F0A9178025BD05070DE599F5E0
:100162001B801B7D00E599F51AE51BF519E51AF5CB
:10017200181200F0A817758C3C758AB0D28CC299FF
:10018200327D007E00780079007A00C29FD29EC242
:100192009DD29C53877F758921758DF3D28ED2AC07
:1001A200D2A8D288D2AAD28A758C3C758AB0D28C57
:1001B200D2BC7F14D2A9D2AF12008DBE00051200AC
:1001C2008D80F8BE010E1200DA12008D1200DA756F
:1001D20080FF80E7BE020E1200DA12008D1200DAF2
:1001E20075A0FF80D61200DA12008D1200DA759027
:0301F200FF80C8C3
:00000001FF
